:1000000045C0000062C0000060C000005EC000008B
:100010005CC000005AC0000058C0000056C000007C
:1000200054C0000052C0000050C000004EC000008C
:10003000D3C000004AC00000DEC00000ACC0000019
:1000400044C0000042C00000CEC300003EC000001B
:100050003CC000003AC0000038C0000036C00000BC
:1000600034C0000032C0000030C000002EC00000CC
:100070002CC000002AC0000028C0000026C00000DC
:1000800024C0000022C0000020C0000011241FBEB8
:10009000CFEFD0E1DEBFCDBF11E0A0E0B1E0E4E5FD
:1000A000FDE200E00BBF02C007900D92AA34B10739
:1000B000D9F723E0AAE4B1E001C01D92A730B2074E
:1000C000E1F70E9416130C94A8169ACF82E380934E
:1000D000700084E08093740010927100089520E015
:1000E00030E007C0A9014F5F5F4F213D374060F40A
:1000F0009A01909174009923ACF790917100987FC8
:10010000981721F082E0089581E0089580E0089535
:1001100084EA8093740088E0E2CF089580937300AE
:1001200084E88093740088E1DACF089580937300A7
:1001300084E88093740088E2D2CF089584E98093A4
:100140007400089584EA8093740080E1C8CF089514
:1001500081608093730084E88093740080E4BFCF53
:100160000895CF93DF93EC0184E88093740088E5D1
:10017000B6DF80917300888380E0DF91CF9108958E
:100180008FE083BF12BE8EE081BF84E187BF87B757
:10019000826087BF08951F920F920FB60F921124AD
:1001A0008F93809106038F5F80930603809179017E
:1001B0008F5F809379018F910F900FBE0F901F90EA
:1001C000189582E08FBD8BE18EBD1BBC1ABC8FEFF2
:1001D00091E197BD86BD08951F920F920FB60F92C1
:1001E00011248F9385B38F7E85BB8F910F900FBEA7
:1001F0000F901F9018951F920F920FB60F92112417
:100200008F9385B3806185BB8F910F900FBE0F9048
:100210001F90189586E292E09BBD8ABD089586EEF8
:1002200090E09BBD8ABD089586E292E09BBD8ABDA9
:100230002FEF8FEF9AE1215080409040E1F700C00E
:10024000000086EE90E09BBD8ABD2FEF8FEF9AE114
:10025000215080409040E1F700C00000089580EEFA
:1002600084BB1BBC1ABC08951F93CF93DF93C82F88
:10027000D62F142F4DDF8C2F51DF81110AC08D2F07
:1002800055DF811106C0812F51DF811102C056DF79
:1002900080E0DF91CF911F910895EF92FF920F932D
:1002A0001F93CF93DF931F92CDB7DEB7182F062F82
:1002B0007A0119822DDF812F31DF811115C0802F46
:1002C00035DF811111C03EDF81110EC0812F40DF6B
:1002D00081110AC0CE01019644DF811105C02EDFD5
:1002E0008981F701808380E00F90DF91CF911F918A
:1002F0000F91FF90EF90089541E560E0B5CF08952C
:10030000EF92FF921F93CF93DF931F92CDB7DEB78B
:10031000182F7B01AE014F5F5F4F62E0BEDF882385
:1003200011F090E016C08981F70110828183AE013F
:100330004F5F5F4F63E0812FB0DF882311F090E0C3
:1003400008C09981F70120813181292B31832083D5
:1003500090E00F90DF91CF911F91FF90EF90089563
:1003600080910901C9DF809106038334B0F167E70A
:1003700071E080910901C4DF80936F018091790160
:100380008334C8F02091ED013091EE018091770126
:1003900090917801820F931F9093EE018093ED016D
:1003A000109279018091720190917301019690935E
:1003B000730180937201809109019EDF1092060300
:1003C000809170019091710101966AE070E00E9445
:1003D0008E139093710180937001809172019091BE
:1003E00073014E97D4F02091ED013091EE01A9E810
:1003F000B8E80E94A113929582958F7089279F700B
:10040000892790937F0180937E011092EE011092D4
:10041000ED0110927301109272010895E199FECFDF
:100420009FBB8EBB6DBBF8948CB384608CBB8CB3CC
:1004300082608CBB78940895E199FECF9FBB8EBB00
:100440008CB381608CBB8DB3089580E884BB85BB81
:1004500015BA26E636EE90E0215030409040E1F7A4
:1004600085BB24EC2A95F1F700C0089514BA9F9932
:1004700011C086E291E00197F1F700C000009F9B58
:100480000CC086E291E00197F1F700C0000080E027
:1004900090E0089581E090E0089581E090E0089573
:1004A000E5DF892B09F064C014BA1092E6011092BE
:1004B000E50157C0109247021092460242C09F9B2E
:1004C000FECF83E98A95F1F700C09F9917C0E091AC
:1004D000E501F091E6018091460290914702EE0F0E
:1004E000FF1FEE0FFF1FEE0FFF1FE80FF91FEE0FAC
:1004F000FF1FED50FE4F118210821AC0E091E501FE
:10050000F091E6018091460290914702EE0FFF1FA5
:10051000EE0FFF1FEE0FFF1FE80FF91FEE0FFF1F7B
:10052000ED50FE4F81E090E0918380839F99FECF54
:1005300080914602909147020196909347028093E2
:100540004602809146029091470208970CF4B7CF7B
:100550008091E5019091E60101969093E6018093E8
:10056000E5018091E5019091E60105970CF4A2CF99
:1005700008950F931F93CF93DF9367DF77DF90DFAB
:10058000E3EFF1E08081918122813381880F991F0F
:10059000820F931F24813581880F991F820F931F2B
:1005A00026813781880F991F820F931F20853185FF
:1005B000880F991F820F931F22853385880F991FFB
:1005C000820F931F24853585880F991F820F931FF3
:1005D000880F991F26853785820F931F9093A1025C
:1005E0008093A0020089118922893389000F111F8D
:1005F000020F131F24893589000F111F020F131FCB
:1006000026893789000F111F020F131F208D318D8E
:10061000000F111F020F131F228D338D000F111FAA
:10062000020F131F248D358D000F111F020F131F92
:10063000000F111F268D378D020F131F10934902D3
:1006400000934802C0A1D1A122A133A1CC0FDD1F8C
:10065000C20FD31F24A135A1CC0FDD1FC20FD31FA2
:1006600026A137A1CC0FDD1FC20FD31F20A531A5B6
:10067000CC0FDD1FC20FD31F22A533A5CC0FDD1F6A
:10068000C20FD31F24A535A5CC0FDD1FC20FD31F6A
:10069000CC0FDD1F26A537A5C20FD31FD0937B013A
:1006A000C0937A0120A931A942A953A9220F331F6F
:1006B000240F351F44A955A9220F331F240F351FBE
:1006C00046A957A9220F331F240F351F40AD51AD46
:1006D000220F331F240F351F42AD53AD220F331F9E
:1006E000240F351F44AD55AD220F331F240F351F86
:1006F000220F331F06ACF7ADE02DE20FF31FF0938E
:10070000F001E093EF0120913302309134024091E7
:10071000350250913602220F331F240F351F4091AE
:10072000370250913802220F331F240F351F40919A
:10073000390250913A02220F331F240F351F409186
:100740003B0250913C02220F331F240F351F409172
:100750003D0250913E02220F331F240F351F40915E
:100760003F0250914002220F331F240F351F220FEA
:10077000331F4091410250914202420F531F509348
:100780007501409374019C01200F311F2C0F3D1FF8
:100790002E0F3F1F4217530709F52AE030E0B90139
:1007A0000E948E136093450280935F02C801B901D5
:1007B0000E948E136093F2018093E401CE01B9018F
:1007C0000E948E136093EA0180936102CF01B90108
:1007D0000E948E136093430280936302DF91CF9156
:1007E0001F910F9108951F920F920FB60F9211242F
:1007F0000BB60F928F939F93EF93FF9310924A0142
:1008000080917601E82FF0E09CB1E058FE4F908394
:100810008F5F80937601853028F0909184019A5FF4
:100820009093010190910101891303C081E08093AD
:100830005401FF91EF919F918F910F900BBE0F90FC
:100840000FBE0F901F90189588ED8AB910929000F6
:100850008FE089B908955D9BFECF8CB908950F9301
:100860001F93CF93DF93EC0103C08991F4DFB801AC
:100870008B0101501109672BC1F7DF91CF911F91B7
:100880000F910895AC0120E030E080E007C0FA014C
:10089000E20FF31F9081890F2F5F3F4F2617370715
:1008A000B4F30895CF93FC0120812F3F79F5218186
:1008B000213079F561507109E60FF71FC081E2DF41
:1008C000C8132AC080918301863049F58091850143
:1008D00080935001813029F481E090E0ADDD809378
:1008E0004C0180915001823029F482E090E0A4DD37
:1008F00080934C01809150018330A1F483E090E01B
:100900009BDD80934C0180E090E00EC08FEF9FEF65
:100910000BC08EEF9FEF08C08DEF9FEF05C080E00A
:1009200090E002C080E090E0CF910895EF92FF92B6
:100930001F93CF93DF93CDB7DEB7C456D1090FB65F
:10094000F894DEBF0FBECDBFD9019FEF998392E02F
:100950009A838B836C834D8380E090E015E00DC01B
:10096000FD01E80FF91F3081E1E0F0E0EC0FFD1F21
:10097000E10FF11D308301961F5F642F70E0861731
:10098000970774F3E12EF12CB701CE0101967ADFBF
:10099000E1E0F0E0EC0FFD1FEE0DFF1D80831F5F17
:1009A000612F70E0CE0101965ADFCC59DF4F0FB6B0
:1009B000F894DEBF0FBECDBFDF91CF911F91FF90A6
:1009C000EF90089516B880E487B983E886B9089552
:1009D00084E487B986B1806486B9349BFECF24B1A4
:1009E00085B190E0982F8827822B089581E487B9FC
:1009F00086B1806486B9349BFECF24B185B190E086
:100A0000982F8827822B089582E487B986B1806465
:100A100086B9349BFECF24B185B190E0982F88270A
:100A2000822B089583E487B986B1806486B9349BAC
:100A3000FECF24B185B190E0982F8827822B0895AE
:100A4000CF93DF93C5DF9093040180930301C4E645
:100A5000D0E0BE010E948E1360937C01C7DF9093AB
:100A60005B0180935A01D0DF909359018093580124
:100A7000D9DF90936C0180936B01BE010E948E13AD
:100A800060936002DF91CF91089580914B0180FDCA
:100A90000AC020915A0130915B012D3B324018F081
:100AA000816080934B0180914B0180FF1CC020919D
:100AB0005A0130915B0124343240A8F490915601E0
:100AC00090FD05C0909102019F5F9093020190916B
:100AD000690190FD05C0909166019F5F909366014A
:100AE0008E7F80934B0180914B0181FD0AC0209144
:100AF0005A0130915B01283C310518F482608093E3
:100B00004B0180914B0181FF1CC020915A01309113
:100B10005B0121393140A8F09091560190FD05C04C
:100B2000909102019150909302019091690190FD82
:100B300005C0909166019150909366018D7F8093DE
:100B40004B0180914B0182FD0AC0209158013091E8
:100B500059012132334018F0846080934B01809119
:100B60004B0182FF72C02091580130915901283504
:100B7000324008F06AC0909167019F5F90936701CF
:100B80009091560190FF38C090915701923011F02A
:100B9000943091F590910201913051F42091EC0143
:100BA00021502093EC0120915E02215020935E029F
:100BB000923051F42091EB0121502093EB012091D0
:100BC000E70121502093E701933051F42091440232
:100BD000215020934402209162022150209362020E
:100BE000943051F490915D01915090935D019091FA
:100BF0005C01915090935C019091690190FF22C03B
:100C0000909157019530F1F490916601911105C0D2
:100C100020910801215020930801913029F420915E
:100C20000701215020930701923029F420910601F9
:100C3000215020930601933029F4909105019150A1
:100C4000909305018B7F80934B0180914B0183FD35
:100C50000AC020915801309159012436310518F409
:100C6000886080934B0180914B0183FF72C020917B
:100C70005801309159012F35314008F46AC09091E4
:100C800067019150909367019091560190FF38C091
:100C900090915701923011F0943091F590910201AA
:100CA000913051F42091EC012F5F2093EC012091C1
:100CB0005E022F5F20935E02923051F42091EB018F
:100CC0002F5F2093EB012091E7012F5F2093E70135
:100CD000933051F4209144022F5F209344022091DD
:100CE00062022F5F20936202943051F490915D0173
:100CF0009F5F90935D0190915C019F5F90935C0179
:100D00009091690190FF22C0909157019530F1F4C4
:100D100090916601911105C0209108012F5F2093E9
:100D20000801913029F4209107012F5F20930701DA
:100D3000923029F4209106012F5F20930601933011
:100D400029F4909105019F5F90930501877F80931F
:100D50004B010895E5E6F0E081E0808388E38BBBFA
:100D600080EC8A95F1F710820895E5E6F0E081E0E5
:100D700080838CE08BBB80EC8A95F1F7108208951C
:100D8000E5E6F0E081E0808386E08BBB80EC8A952D
:100D9000F1F710820895E5E6F0E081E080838BBBF7
:100DA0008CEC9CE10197F1F700C0000010820895DF
:100DB0000F931F93CF9380915401813059F5C091C7
:100DC00001010C2F10E0A80160E871E082EA92E0D6
:100DD0000E94C413C0935301C4E6C0930101109252
:100DE000760110925401B80182EA92E05BDD9093A3
:100DF000520180935101E0E8F1E0DF011D92CA95B4
:100E0000E9F799233CF4C7DF8FEF9FE80197F1F7EB
:100E100000C00000CF911F910F910895813011F013
:100E200090E001C090ECE5E6F0E081E08083692B82
:100E300060686BBB86EF8A95F1F710820895E5E64E
:100E4000F0E095E090838BBB83ED8A95F1F700C0CD
:100E500084E080830895CF93DF93EC0102C0EFDF3D
:100E6000219688818111FBCFDF91CF910895CF9397
:100E7000DF93D82FC62F80914C0190E00D2E02C039
:100E8000959587950A94E2F780FF09C06DE080E0B0
:100E9000C5DF8FE4D4DF8EE4D2DF80E2D0DF809143
:100EA0004C0190E002C095958795DA95E2F780FDB8
:100EB00009C06DE080E0B2DF8FE4C1DF86E4BFDF10
:100EC00086E4BDDF80914C0190E00C2E02C0959528
:100ED00087950A94E2F780FF09C06DE081E09EDF0C
:100EE0008FE4ADDF8EE4ABDF80E2A9DF80914C01BF
:100EF00090E002C095958795CA95E2F780FD09C0FC
:100F00006DE081E08BDF8FE49ADF86E498DF86E492
:100F100096DFDF91CF91089580916E0181110C943D
:100F2000041280916D0181110C940412809157017B
:100F30008111B3C180916701811147C060E06EDF0C
:100F40008EE37DDF81E37BDF8EE279DF83E577DF90
:100F500085E475DF84E573DF84E571DF89E46FDFA5
:100F60008EE46DDF87E46BDF83E569DF80E267DFB6
:100F700080E265DF80E263DF60E081E04FDF80E2F6
:100F80005EDF82E35CDF8EE25ADF83E458DF88E4D1
:100F900056DF81E454DF8EE452DF87E450DF85E4DE
:100FA0004EDF80E24CDF80E54ADF87E548DF84E4FE
:100FB00046DF80914B0184FF08C091E09093570178
:100FC000109267018F7E80934B0180916701813081
:100FD00009F053C060E080E021DF80E230DF81E390
:100FE0002EDF8EE22CDF83E52ADF85E428DF84E52F
:100FF00026DF84E524DF89E422DF8EE420DF87E436
:101000001EDF83E51CDF80E21ADF80E218DF80E26A
:1010100016DF60E081E002DF8EE311DF82E30FDFA5
:101020008EE20DDF83E40BDF88E409DF81E407DF74
:101030008EE405DF87E403DF85E401DF80E2FFDE85
:1010400080E5FDDE87E5FBDE84E4F9DE80914B017F
:1010500084FF13C092E09093570191E090930201B6
:10106000109267011092EC011092EB011092440271
:1010700010925D018F7E80934B01809167018230D9
:1010800009F05AC060E080E0C9DE8EE3D8DE83E379
:10109000D6DE8EE2D4DE85E4D2DE8EE4D0DE86E5D6
:1010A000CEDE80E2CCDE83E5CADE85E4C8DE84E500
:1010B000C6DE84E5C4DE89E4C2DE8EE4C0DE87E4F9
:1010C000BEDE6EE080E0AADE80E2B9DE80E2B7DE5E
:1010D00060E081E0A3DE80E2B2DE84E3B0DE8EE297
:1010E000AEDE84E4ACDE8FE4AADE8FE4A8DE82E527
:1010F000A6DE80E2A4DE8FE4A2DE80E5A0DE85E449
:101100009EDE8EE49CDE80E29ADE80914B0184FFBD
:1011100013C095E090935701109267018F7E8093E2
:101120004B01109202011092660135DE8FEF9FE8AD
:101130000197F1F700C0000080916701833009F04A
:101140004FC060E080E06ADE80E279DE83E377DE34
:101150008EE275DE85E473DE8EE471DE86E56FDE99
:1011600080E26DDE83E56BDE85E469DE84E567DEC3
:1011700084E565DE89E463DE8EE461DE87E45FDEBC
:101180006EE080E04BDE80E25ADE80E258DE60E016
:1011900081E044DE8EE353DE84E351DE8EE24FDEF7
:1011A00084E44DDE8FE44BDE8FE449DE82E547DEEA
:1011B00080E245DE8FE443DE80E541DE85E43FDE0C
:1011C0008EE43DDE80E23BDE80914B0184FF08C06F
:1011D00096E090935701109267018F7E80934B01A8
:1011E00080916701843009F051C060E080E016DE34
:1011F0008EE325DE85E323DE8EE221DE83E51FDE3E
:101200008CE41DDE85E41BDE85E419DE80E517DE57
:1012100080E215DE8DE413DE8FE411DE84E40FDE60
:1012200085E40DDE80E20BDE6EE080E0F7DD80E23B
:1012300006DE80E204DE60E081E0F0DD80E2FFDDDA
:1012400080E2FDDD80E2FBDD80E2F9DD80E2F7DDBA
:1012500080E2F5DD80E2F3DD80E2F1DD80E2EFDDCA
:1012600080E2EDDD80E2EBDD80E2E9DD80E2E7DDDA
:1012700080914B0184FF0AC01092570110926701C0
:1012800091E090934A018F7E80934B01809167019A
:10129000853018F084E08093670180915701813098
:1012A00009F02CC380916701811148C060E0B6DD70
:1012B0008EE3C5DD84E4C3DD88E4C1DD84E5BFDD04
:1012C0008FE5BDDD81E3BBDD81E3B9DD80E2B7DD24
:1012D00080E2B5DD80E2B3DD80E2B1DD80E2AFDD4A
:1012E00080E2ADDD60E081E099DD80E2A8DD82E4AE
:1012F000A6DD8CE4A4DD89E4A2DD8EE4A0DD84E437
:101300009EDD80E29CDD80E29ADD80E298DD80E275
:1013100096DD80E294DD80E292DD80E290DD65E0A2
:1013200087E0A5DD80914B0184FF08C090914C01BE
:10133000905890934C018F7E80934B018091670170
:10134000813009F04FC060E080E068DD80E277DD49
:1013500084E475DD88E473DD84E571DD8FE56FDDA0
:1013600081E36DDD81E36BDD80E269DD80E267DDD5
:1013700080E265DD80E263DD80E261DD80E25FDDE9
:1013800060E081E04BDD8EE35ADD82E458DD8CE4E1
:1013900056DD89E454DD8EE452DD84E450DD80E2E4
:1013A0004EDD80E24CDD80E24ADD80E248DD80E215
:1013B00046DD80E244DD80E242DD65E087E057DD26
:1013C00080914B0184FF0EC090914C0180E28927EF
:1013D00080934C0165E087E04ADD80914B018F7E70
:1013E00080934B0180916701823009F04FC060E02B
:1013F00080E014DD8EE323DD8DE421DD81E41FDD5B
:1014000089E41DDD8CE41BDD80E219DD81E417DD5C
:101410008CE415DD81E413DD82E511DD8DE40FDD63
:1014200080E20DDD80E20BDD60E081E0F7DC80E250
:1014300006DD87E404DD81E402DD83E500DD80E292
:10144000FEDC83E5FCDC85E4FADC8EE4F8DC83E595
:10145000F6DC8FE4F4DC82E5F2DC80E2F0DC80E2B2
:10146000EEDC61E083E003DD80914B0184FF0EC080
:1014700090914C0188E0892780934C0161E083E0E2
:10148000F6DC80914B018F7E80934B018091670148
:10149000833009F04FC060E080E0C0DC80E2CFDC48
:1014A0008DE4CDDC81E4CBDC89E4C9DC8CE4C7DCF1
:1014B00080E2C5DC81E4C3DC8CE4C1DC81E4BFDC18
:1014C00082E5BDDC8DE4BBDC80E2B9DC80E2B7DC28
:1014D00060E081E0A3DC8EE3B2DC87E4B0DC81E491
:1014E000AEDC83E5ACDC80E2AADC83E5A8DC85E445
:1014F000A6DC8EE4A4DC83E5A2DC8FE4A0DC82E53C
:101500009EDC80E29CDC80E29ADC61E083E0AFDC80
:1015100080914B0184FF0EC090914C0182E089279D
:1015200080934C0161E083E0A2DC80914B018F7ECF
:1015300080934B0180916701843009F04FC060E0D7
:1015400080E06CDC8EE37BDC88E479DC85E577DCAD
:101550008DE475DC89E473DC84E471DC89E46FDCA0
:1015600084E46DDC86E46BDC89E469DC85E467DCBB
:1015700082E565DC80E263DC60E081E04FDC80E2F4
:101580005EDC8DE45CDC85E55ADC8CE458DC84E5CB
:1015900056DC89E454DC84E552DC81E450DC80E5EF
:1015A0004EDC80E24CDC80E24ADC80E248DC80E217
:1015B00046DC64E086E05BDC80914B0184FF0EC07A
:1015C00090914C0180E4892780934C0164E086E08F
:1015D0004EDC80914B018F7E80934B01809167019F
:1015E000853009F04FC060E080E018DC80E227DC45
:1015F00088E425DC85E523DC8DE421DC89E41FDC3F
:1016000084E41DDC89E41BDC84E419DC86E417DC5B
:1016100089E415DC85E413DC82E511DC80E20FDC73
:1016200060E081E0FBDB8EE30ADC8DE408DC85E52D
:1016300006DC8CE404DC84E502DC89E400DC84E57F
:10164000FEDB81E4FCDB80E5FADB80E2F8DB80E2B4
:10165000F6DB80E2F4DB80E2F2DB64E086E007DCCC
:1016600080914B0184FF0EC090914C0180E189274D
:1016700080934C0164E086E0FADB80914B018F7E21
:1016800080934B0180916701863009F04FC060E084
:1016900080E0C4DB8EE3D3DB87E5D1DB81E4CFDB05
:1016A00084E5CDDB85E4CBDB82E5C9DB83E5C7DB05
:1016B00085E4C5DB8EE4C3DB83E5C1DB8FE4BFDB00
:1016C00082E5BDDB80E2BBDB60E081E0A7DB80E29E
:1016D000B6DB81E4B4DB89E4B2DB82E5B0DB83E432
:1016E000AEDB8FE4ACDB8EE4AADB80E2A8DB80E239
:1016F000A6DB80E2A4DB80E2A2DB80E2A0DB80E26A
:101700009EDB60E082E0B3DB80914B0184FF0EC082
:1017100090914C0184E0892780934C0160E082E045
:10172000A6DB80914B018F7E80934B0180916701F6
:10173000873009F04FC060E080E070DB80E27FDB43
:1017400087E57DDB81E47BDB84E579DB85E477DBA2
:1017500082E575DB83E573DB85E471DB8EE46FDBAB
:1017600083E56DDB8FE46BDB82E569DB80E267DBC1
:1017700060E081E053DB8EE362DB81E460DB89E4DF
:101780005EDB82E55CDB83E45ADB8FE458DB8EE4CE
:1017900056DB80E254DB80E252DB80E250DB80E209
:1017A0004EDB80E24CDB80E24ADB60E082E05FDB24
:1017B00080914B0184FF0EC090914C0181E08927FC
:1017C00080934C0160E082E052DB80914B018F7E80
:1017D00080934B0180916701883009F089C060E0F7
:1017E00080E01CDB8EE32BDB82E429DB81E427DB5A
:1017F00083E425DB8BE423DB80E221DB80E21FDB5B
:1018000080E21DDB80E21BDB80E219DB80E217DB7C
:1018100080E215DB80E213DB80E211DB80E20FDB8C
:1018200080E20DDB60E081E0F9DA80E208DB80E253
:1018300006DB80E204DB80E202DB80E200DB80E2A8
:10184000FEDA80E2FCDA80E2FADA80E2F8DA80E2BC
:10185000F6DA80E2F4DA80E2F2DA80E2F0DA80E2CC
:10186000EEDA80E2ECDA80E2EADA80914B0184FF82
:101870003FC0109257011092670180915001813052
:1018800071F460914C0160934D0181E090E00E9401
:101890000E0281E090E00E941C0280934C01809136
:1018A0005001823071F460914C0160934F0182E0ED
:1018B00090E00E940E0282E090E00E941C02809361
:1018C0004C0180915001833071F460914C01609320
:1018D0004E0183E090E00E940E0283E090E00E94BF
:1018E0001C0280934C0180914B018F7E80934B01B1
:1018F00080916701893010F0109267018091570143
:10190000823009F033C18091EC018A3010F01092DE
:10191000EC018091EB018A3010F01092EB01809184
:1019200044028A3010F01092440280915D018A30A6
:1019300010F010925D0180910201811103C081E0DD
:101940008093020180910201863018F085E0809337
:10195000020180910201863008F061C060E080E001
:101960005DDA89E46CDA8EE46ADA80E568DA85E5C6
:1019700066DA84E564DA80E262DA80E560DA87E5D7
:101980005EDA84E45CDA80E25ADA80E258DA80E2F5
:1019900056DA8091560180FF1DC060E080E03EDA9B
:1019A00089E44DDA8EE44BDA83E549DA85E447DAF7
:1019B00082E545DA84E543DA80E241DA8DE43FDA14
:1019C0008FE43DDA84E43BDA85E439DA80E237DA21
:1019D00080E235DA60E081E021DA80E230DA80917D
:1019E000EC01805D2CDA80E22ADA8091EB01805DE7
:1019F00026DA80E224DA80914402805D20DA80E2F7
:101A00001EDA80915D01805D1ADA80E218DA8FE4D7
:101A100016DA8BE414DA80E212DA80E210DA8091CE
:101A20000201813089F460E0F9D98EE308DA80910F
:101A30004B0184FF09C02091560191E092279093B9
:101A400056018F7E80934B01809102018230B9F460
:101A500060E081E0E3D980E2F2D962E081E0DED9A2
:101A60008EE3EDD980914B0184FF09C0209156018E
:101A700091E09227909356018F7E80934B01809145
:101A800002018330E1F460E081E0C8D980E2D7D977
:101A900062E081E0C3D980E2D2D964E081E0BED9BE
:101AA0008EE3CDD980914B0184FF09C0209156016E
:101AB00091E09227909356018F7E80934B01809105
:101AC0000201843009F560E081E0A8D980E2B7D94D
:101AD00062E081E0A3D980E2B2D964E081E09ED9DE
:101AE00080E2ADD966E081E099D98EE3A8D98091F2
:101AF0004B0184FF09C02091560191E092279093F9
:101B000056018F7E80934B0180910201853071F5E3
:101B100060E081E083D980E292D962E081E07ED901
:101B200080E28DD964E081E079D980E288D966E0ED
:101B300081E074D980E283D968E081E06FD98EE3D7
:101B40007ED980914B0184FF11C093E0909357019F
:101B500091E09093020110925E021092E7011092C0
:101B6000620210925C018F7E80934B01809157013D
:101B7000833009F065C09091EC0180916101981368
:101B800012C09091EB018091600198130CC090916C
:101B9000440280915F01981306C090915D0180918D
:101BA0005E01981751F1F7D88FEF9FE80197F1F791
:101BB00000C0000060E080E031D987E540D982E5CF
:101BC0003ED98FE43CD98EE43AD987E438D980E213
:101BD00036D980E534D987E532D984E430D99FEF0E
:101BE0002FEF8CE2915020408040E1F700C00000D0
:101BF0001092570181E0809367019091EC018091F0
:101C0000610198131DC09091EB01809160019813C0
:101C100017C09091440280915F01981311C0909178
:101C20005D0180915E0198130BC084E080935701A1
:101C300010925E021092E7011092620210925C0113
:101C400080915701843009F02CC180915E028A3066
:101C500010F010925E028091E7018A3010F010922D
:101C6000E701809162028A3010F010926202809146
:101C70005C018A3010F010925C01809102018111A8
:101C800003C081E08093020180910201863018F048
:101C900085E08093020160E080E0C0D883E4CFD883
:101CA00088E4CDD881E4CBD88EE4C9D887E4C7D8FE
:101CB00085E4C5D880E2C3D880E5C1D887E5BFD820
:101CC00084E4BDD880E2BBD88091560180FF1DC05E
:101CD00060E080E0A3D889E4B2D88EE4B0D883E590
:101CE000AED885E4ACD882E5AAD884E5A8D880E24D
:101CF000A6D88DE4A4D88FE4A2D884E4A0D885E443
:101D00009ED880E29CD880E29AD860E081E086D8B4
:101D100080E295D880915E02805D91D880E28FD874
:101D20008091E701805D8BD880E289D88091620242
:101D3000805D85D880E283D880915C01805D7FD80A
:101D400080E27DD88FE47BD88BE479D88091020142
:101D5000813089F460E062D88EE371D880914B01C4
:101D600084FF09C02091560191E09227909356017B
:101D70008F7E80934B0180910201823091F462E06A
:101D800081E04CD88EE35BD880914B0184FF09C081
:101D90002091560191E09227909356018F7E809377
:101DA0004B0180910201833091F464E081E036D8E8
:101DB0008EE345D880914B0184FF09C020915601E4
:101DC00091E09227909356018F7E80934B018091F2
:101DD0000201843091F466E081E020D88EE32FD8B0
:101DE00080914B0184FF09C02091560191E0922718
:101DF000909356018F7E80934B0180910201853034
:101E000009F04FC068E081E009D88EE318D88091CE
:101E10004B0184FF46C060915E0260936101809136
:101E2000E701809360018091620280935F0180915D
:101E30005C0180935E0180E190E00E940E0260915F
:101E4000600180E290E00E940E0260915F0180E3F9
:101E500090E00E940E0260915E0180E490E00E949A
:101E60000E02E2E6F1E080916101808380916001E1
:101E7000818380915F01828380915E0183839F01D2
:101E800044E066E082E00E9496041092570181E0EF
:101E9000809302018093670180914B018F7E809334
:101EA0004B0180915701853009F06DC28091660128
:101EB000853018F084E08093660162E080E00E9443
:101EC0000E0784E50E941F0789E50E941F0780E531
:101ED0000E941F0785E40E941F076BE080E00E94BC
:101EE0000E0783E50E941F0785E40E941F0784E513
:101EF0000E941F078091690180FF15C060E080E0AB
:101F00000E940E0780E20E941F076FE080E00E949F
:101F10000E0780E20E941F076BE081E00E940E071F
:101F20008EE30E941F078091660181117CC0809121
:101F3000690180FD15C060E080E00E940E0780E22C
:101F40000E941F076FE080E00E940E078EE30E9450
:101F50001F076BE081E00E940E0780E20E941F07CE
:101F600060E081E00E940E0780E20E941F0784E586
:101F70000E941F0785E60E941F078DE60E941F072B
:101F800080E70E941F078AE30E941F078091EA01F1
:101F9000805D0E941F0780916102805D0E941F0783
:101FA0008EE20E941F0780914302805D0E941F07FE
:101FB00080916302805D0E941F07809108011F923B
:101FC0008F938AE091E09F938F938AE492E09F93AE
:101FD0008F93E3D36CE081E00E940E078AE492E0E5
:101FE0000E942B07809108010F900F900F900F9087
:101FF0000F900F90823118F482E180930801809154
:1020000008018F3118F08EE18093080180914B0117
:1020100084FF09C02091690191E0922790936901A2
:102020008F7E80934B0180916601813009F07CC0E6
:102030008091690180FD15C060E080E00E940E077C
:102040008CE30E941F076FE080E00E940E078EE382
:102050000E941F076BE081E00E940E0780E20E9451
:102060001F0760E081E00E940E0780E20E941F07C8
:1020700088E40E941F0785E70E941F078DE60E94E3
:102080001F0789E60E941F078AE30E941F078091AD
:102090004502805D0E941F0780915F02805D0E9463
:1020A0001F078EE20E941F078091F201805D0E944F
:1020B0001F078091E401805D0E941F078091070146
:1020C0001F928F938AE091E09F938F938AE492E02E
:1020D0009F938F9362D36CE081E00E940E078AE4A5
:1020E00092E00E942B07809107010F900F900F90B4
:1020F0000F900F900F908A3018F48AE080930701B8
:10210000809107018B3518F08AE580930701809153
:102110004B0184FF09C02091690191E092279093BF
:1021200069018F7E80934B0180916601823009F0B6
:1021300076C08091690180FD15C060E080E00E945A
:102140000E078CE30E941F076FE080E00E940E07DD
:102150008EE30E941F076BE081E00E940E0780E281
:102160000E941F0760E081E00E940E0780E20E944B
:102170001F078CE40E941F0785E70E941F078DE65A
:102180000E941F0789E60E941F078AE30E941F071B
:1021900080916002805D0E941F0780E20E941F07FD
:1021A00080E20E941F0780E20E941F0780E20E94D7
:1021B0001F07809106011F928F938AE091E09F9301
:1021C0008F938AE492E09F938F93E7D26CE081E053
:1021D0000E940E078AE492E00E942B07809106017C
:1021E0000F900F900F900F900F900F90811103C0E0
:1021F00081E080930601809106018A3018F089E021
:102200008093060180914B0184FF09C020916901F0
:1022100091E09227909369018F7E80934B0180918A
:102220006601833009F076C08091690180FD15C098
:1022300060E080E00E940E078CE30E941F076FE0C1
:1022400080E00E940E078EE30E941F076BE081E092
:102250000E940E0780E20E941F0760E081E00E945A
:102260000E0780E20E941F0787E50E941F0781E694
:102270000E941F0784E70E941F0785E60E941F0730
:1022800082E70E941F0780E20E941F078CE40E94E1
:102290001F078AE30E941F0780917C01805D0E94D6
:1022A0001F0780E20E941F07809105011F928F93F4
:1022B0008AE091E09F938F938AE492E09F938F93BB
:1022C0006CD26CE081E00E940E078AE492E00E94EA
:1022D0002B07809105010F900F900F900F900F909A
:1022E0000F90811103C081E0809305018091050169
:1022F0008A3018F089E08093050180914B0184FFBA
:1023000009C02091690191E09227909369018F7E25
:1023100080934B01809166018430A9F50E94CB0621
:102320008FEF9FE80197F1F700C0000060E081E0C7
:102330000E940E078EE30E941F0782E40E941F077F
:1023400081E40E941F0783E40E941F078BE40E9420
:102350001F076BE081E00E940E0780E20E941F07CA
:1023600080E20E941F0780E20E941F0780914B01BC
:1023700084FF09C010925701109267011092020168
:102380008F7E80934B01809157018630E9F520E0E4
:1023900031E041E066E083E00E9496040E94CB06B3
:1023A0008FEF9FE80197F1F700C0000060E080E048
:1023B0000E940E0784E40E941F078FE40E941F07FB
:1023C0008FE40E941F0782E50E941F0780E20E949F
:1023D0001F078FE40E941F0780E50E941F0785E406
:1023E0000E941F078EE40E941F0792E323E78AE5FD
:1023F000915020408040E1F700C000C0109257018A
:10240000109267011092020180916E018130B1F546
:1024100080916D01811132C060E00E940E078FE053
:1024200091E00E942B0780917F018F9380917E0124
:102430008F93809173018F93809172018F9380911C
:10244000EE018F938091ED018F9384E291E09F9351
:102450008F938AE492E09F938F939FD160E081E015
:102460000E940E078AE492E00E942B078DB79EB768
:102470000A960FB6F8949EBF0FBE8DBF80916D0176
:10248000813081F460E080E00E940E0788E391E0F3
:102490000E942B0760E081E00E940E0788E391E034
:1024A0000C942B07089580914C01882384F50E9499
:1024B000B9028091080190E020917A0130917B016E
:1024C000821793072CF440914C01416040934C01DA
:1024D000281739072CF480914C018E7F80934C0192
:1024E0008091070190E02091A0023091A10228176D
:1024F00039072CF440914C01406440934C01821701
:1025000093072CF480914C018F7B80934C010895AC
:1025100080914C0185FF10C090916002809106016E
:10252000891710F40E940A019091600280910601BF
:10253000981710F40E940F0180914C0185FD03C093
:1025400081FF0C942F01089580914C0183FF11C0ED
:102550000E94B00180917E0190917F018A319105A6
:1025600010F010926E010197489718F481E0809363
:102570006E0180914C0183FF10926E01089580914D
:102580004C0182FF09C090917C018091050189175F
:1025900018F481E080936A01089580914C0181FFD5
:1025A00010C0999905C00E94140181E080936D01CB
:1025B000999B07C010926D0180914C0185FF0E948C
:1025C0002F0180914C0181FF10926D0108958FEFD2
:1025D0008ABB87BB80EF84BB1092610081B38360AC
:1025E00081BB12B887E08093640085B7837E85BF86
:1025F00085B7806285BF7894089580B38095807890
:1026000080935501879BFECF29E989E993E021500A
:1026100080409040E1F7000080915501803829F416
:1026200080914B01806180934B010895D0DF80E55C
:1026300090E00E941C0280936801853618F081E0CA
:1026400080936801609168016F5F6093680180E525
:1026500090E00E940E020E9424040E94E2040E9464
:10266000B5060E94C0060E94AA060E94CB068FEF04
:102670009FE80197F1F700C000000E94E1000E946E
:10268000C0000E9466009FEF2FEF8CE29150204027
:102690008040E1F700C00000809109010E947C01A8
:1026A0001092060310927901809168018823C1F08D
:1026B00080E190E00E941C028093610180E290E042
:1026C0000E941C028093600180E390E00E941C0243
:1026D00080935F0180E490E00E941C0280935E0181
:1026E00080916A01811112C00E9420050E94450557
:1026F000DADE0EDF29DF43DF50DF0E948C077DDF4B
:102700000E94D80680914C01809588BB80916A0117
:10271000813031F780E484BB85BBE2CF97FB072E85
:1027200016F4009406D077FD08D01AD007FC05D027
:102730003EF4909581959F4F0895709561957F4FD8
:102740000895A29FB001B39FC001A39F700D811D8A
:102750001124911DB29F700D811D1124911D0895AA
:10276000AA1BBB1B51E107C0AA1FBB1FA617B707B7
:1027700010F0A61BB70B881F991F5A95A9F78095D3
:102780009095BC01CD010895FB01DC0102C00190D0
:102790000D9241505040D8F708950F931F93CF9357
:1027A000DF93CDB7DEB72E970FB6F894DEBF0FBE1E
:1027B000CDBF0D891E8986E08C831A8309838FEF34
:1027C0009FE79E838D83AE01475E5F4F6F89788D53
:1027D000CE01019610D0EF81F885E00FF11F108235
:1027E0002E960FB6F894DEBF0FBECDBFDF91CF910E
:1027F0001F910F9108952F923F924F925F926F9287
:102800007F928F929F92AF92BF92CF92DF92EF9280
:10281000FF920F931F93CF93DF93CDB7DEB72B9724
:102820000FB6F894DEBF0FBECDBF6C017B018A01ED
:10283000FC0117821682838181FFBFC1CE01019600
:102840003C01F6019381F70193FD859193FF8191FE
:102850007F01882309F4ADC1853239F493FD859158
:1028600093FF81917F01853221F4B60190E0D6D1AA
:10287000E8CF912C212C312CFFE1F315D8F08B32CD
:1028800079F038F4803279F08332A1F4232D20617D
:102890001DC08D3261F0803369F4232D216016C094
:1028A000832D8260382EE32DE4603E2E2AC0F32D66
:1028B000F8601DC037FC2DC020ED280F2A3040F0F5
:1028C0008E32B9F436FC75C1232D2064322E19C026
:1028D00036FE06C08AE0989E200D1124922E11C06B
:1028E000EAE02E9E200D1124222EF32DF0623F2EC1
:1028F00008C08C3621F4832D8068382E02C08836BB
:1029000041F4F70193FD859193FF81917F0181113E
:10291000B3CF982F9F7D9554933028F40C5F1F4FB1
:102920009FE399830DC0833631F0833771F083358F
:1029300009F055C020C0F801808189830E5F1F4FC8
:1029400088248394912C530112C02801F2E04F0E89
:10295000511CF801A080B18036FE03C0692D70E0E3
:1029600002C06FEF7FEFC5014ED14C018201F32D04
:10297000FF773F2E15C0280122E0420E511CF801BE
:10298000A080B18036FE03C0692D70E002C06FEFF9
:102990007FEFC5012DD14C01F32DF0683F2E820150
:1029A00033FC19C0822D90E088169906A0F4B60178
:1029B00080E290E033D12A94F5CFF50137FC859180
:1029C00037FE81915F01B60190E028D121102A9451
:1029D00021E0821A91088114910479F7E1C08436CC
:1029E00011F0893639F5F80137FE07C06081718131
:1029F000828193810C5F1F4F08C060817181072E17
:102A0000000C880B990B0E5F1F4FF32DFF763F2EA6
:102A100097FF09C090958095709561957F4F8F4F76
:102A20009F4FF0683F2E2AE030E0A30133D1882E7B
:102A3000861844C0853731F4232D2F7EB22E2AE02C
:102A400030E025C0932D997FB92E8F36C1F018F450
:102A5000883579F0AEC0803719F0883721F0A9C0E9
:102A6000E92FE061BE2EB4FE0DC0FB2DF460BF2E39
:102A700009C034FE0AC0292F2660B22E06C028E005
:102A800030E005C020E130E002C020E132E0F80192
:102A9000B7FE07C060817181828193810C5F1F4FF7
:102AA00006C06081718180E090E00E5F1F4FA3013E
:102AB000F1D0882E8618FB2DFF773F2E36FE0DC0F5
:102AC000232D2E7FA22E891458F434FE0BC032FC25
:102AD00009C0832D8E7EA82E05C0B82CA32C03C060
:102AE000B82C01C0B92CA4FE0FC0FE01E80DF11DE9
:102AF0008081803321F49A2D997EA92E09C0A2FEEF
:102B000006C0B394B39404C08A2D867809F0B394B8
:102B1000A3FC10C0A0FE06C0B21480F4280C922CB6
:102B20009B180DC0B21458F4B60180E290E076D044
:102B3000B394F8CFB21418F42B1802C0982C212C9F
:102B4000A4FE0FC0B60180E390E068D0A2FE16C0DC
:102B5000A1FC03C088E790E002C088E590E0B601E0
:102B60000CC08A2D867851F0A1FE02C08BE201C014
:102B700080E2A7FC8DE2B60190E050D0891430F4D9
:102B8000B60180E390E04AD09A94F8CF8A94F3019A
:102B9000E80DF11D8081B60190E040D08110F6CFA4
:102BA000222009F44ECEB60180E290E037D02A947C
:102BB000F7CFF6018681978102C08FEF9FEF2B96AA
:102BC0000FB6F894DEBF0FBECDBFDF91CF911F913E
:102BD0000F91FF90EF90DF90CF90BF90AF909F90BC
:102BE0008F907F906F905F904F903F902F900895BF
:102BF000FC010590615070400110D8F780959095C8
:102C00008E0F9F1F0895FC016150704001900110CC
:102C1000D8F7809590958E0F9F1F08950F931F935F
:102C2000CF93DF93FB01238121FD03C08FEF9FEF43
:102C30002CC022FF16C0468157812481358142175E
:102C4000530744F4A081B1819D012F5F3F4F318331
:102C500020838C93268137812F5F3F4F37832683D4
:102C600014C08B01EC01FB010084F185E02D099576
:102C7000892BE1F6D80116968D919C9117970196B4
:102C800017969C938E931697CE01DF91CF911F914B
:102C90000F910895FA01AA27283051F1203181F1CE
:102CA000E8946F936E7F6E5F7F4F8F4F9F4FAF4F54
:102CB000B1E03ED0B4E03CD0670F781F891F9A1F67
:102CC000A11D680F791F8A1F911DA11D6A0F711D1B
:102CD000811D911DA11D20D009F468943F912AE027
:102CE000269F11243019305D3193DEF6CF0108950F
:102CF000462F4770405D4193B3E00FD0C9F7F6CF40
:102D0000462F4F70405D4A3318F0495D31FD405207
:102D1000419302D0A9F7EACFB4E0A695979587959D
:102D200077956795BA95C9F700976105710508957C
:102D30009B01AC010A2E0694579547953795279528
:102D4000BA95C9F7620F731F841F951FA01D0895C0
:042D5000F894FFCF25
:102D5400016401090009053219E225303364004D8C
:102D640061696C206172726976656420202020207C
:102D74002020200025303464202530326420253082
:102D84003364202020202000476173212147617390
:0A2D94002121476173212120000076
:00000001FF
