:1000000086C00000A3C00000A1C000009FC0000087
:100010009DC000009BC0000099C0000097C0000078
:100020003AC1000093C00000B2C000008FC00000C1
:100030008DC000008BC0000089C0000087C0000098
:1000400085C0000083C0000039C100007FC00000EF
:100050007DC000007BC0000079C0000077C00000B8
:1000600075C0000073C0000071C000006FC00000C8
:100070006DC000006BC000000C94DD0E67C0000076
:1000800065C0000063C0000061C00000C30DC70D63
:10009000CD0DCD0DBD0DCD0DCD0DCD0DBF0DCF0DAC
:1000A000CD0DCD0DCD0DCD0DCD0DCD0DC50DC50D90
:1000B000CD0DCD0DCD0DCD0DCD0DCD0DC10DCD0D7C
:1000C000CD0DCD0DCD0DCD0DCD0DCD0DC90DCD0D64
:1000D000CD0DCD0DCD0DCD0DCD0DCD0DCD0DCD0D50
:1000E000CD0DCD0DCD0DCD0DCD0DCD0DCD0DCD0D40
:1000F000CD0DCD0DCD0DCD0DCD0DCD0DCD0DCD0D30
:10010000CD0DCD0DCD0DCD0DCD0DCD0DCB0D1124C6
:100110001FBECFEFD0E1DEBFCDBF12E0A0E0B1E067
:10012000ECE3F4E200E00BBF02C007900D92AC3D9F
:10013000B107D9F728E0ACEDB2E001C01D92A632BC
:10014000B207E1F70E94A9080C941C1259CFE1995B
:10015000FECF9FBB8EBB6DBBF8948CB384608CBB11
:100160008CB382608CBB78940895E199FECF9FBBDD
:100170008EBB8CB381608CBB8DB3089515BC85B5E7
:100180008D6485BD80E487BF80E784BD08951F929C
:100190000F920FB60F9211248F939F938091DE02DE
:1001A0009091DF0201969093DF028093DE0280E758
:1001B00084BD9F918F910F900FBE0F901F90189547
:1001C00082E88FBD8BE18EBD1BBC1ABC8FEF91E125
:1001D00097BD86BD089586E292E09BBD8ABD0895D5
:1001E00086EE90E09BBD8ABD2FEF8FEF93E221500A
:1001F00080409040E1F700C000001BBC1ABC08958D
:10020000E5E6F0E081E0808388E38BBB80EC8A95B3
:10021000F1F710820895E5E6F0E081E080838CE05C
:100220008BBB80EC8A95F1F710820895E5E6F0E04B
:1002300081E0808386E08BBB80EC8A95F1F71082A9
:100240000895E5E6F0E081E080838BBB8CEC9CE1D7
:100250000197F1F700C0000010820895813011F07D
:1002600090E001C090ECE5E6F0E081E08083692B4E
:1002700060686BBB80EC8A95F1F710820895E5E623
:10028000F0E095E090838BBB83ED8A95F1F700C099
:1002900084E0808308951F920F920FB60F9211246D
:1002A0008F931092DF021092DE0285B58D6485BDBA
:1002B0008F910F900FBE0F901F9018951F920F9265
:1002C0000FB60F9211240BB60F928F939F93EF935B
:1002D000FF931092DF021092DE028091E902E82F74
:1002E000F0E09CB1E551FD4F90838F5F8093E90270
:1002F000853028F09091EF029A5F909300019091E1
:100300000001891303C081E08093E102FF91EF9126
:100310009F918F910F900BBE0F900FBE0F901F906B
:10032000189588ED8AB9109290008FE089B90895E8
:100330005D9BFECF8CB908950F931F93CF93DF93EE
:10034000EC0103C08991F4DFB8018B010150110960
:10035000672BC1F7DF91CF911F910F910895AC01E9
:1003600020E030E080E007C0FA01E20FF31F908147
:10037000890F2F5F3F4F26173707B4F308951F9358
:10038000CF93DF93EC0188818F3F09F063C08981AF
:10039000823009F062C061507109FE01E60FF71F5B
:1003A0001081CE01DCDF18135BC08B81863009F031
:1003B0005AC08A81823001F5EBEEF2E065816093EC
:1003C0005B0386818093590387818093EA0280854D
:1003D0008093E60280E190E0BADE6091590381E10A
:1003E00090E0B5DE6091EA0282E190E0B0DE6091DB
:1003F000E60283E190E0ABDE8A81833009F036C00B
:10040000EADE1FDF8FEF9FE80197F1F700C00000E1
:1004100060E080E023DF84E432DF8FE430DF8FE4CC
:100420002EDF82E52CDF80E22ADF8FE428DF80E503
:1004300026DF85E424DF8EE422DF9FEF2FEF89E5BE
:10044000915020408040E1F700C00000C9DE80E00C
:1004500090E00EC08FEF9FEF0BC08EEF9FEF08C0B4
:100460008DEF9FEF05C080E090E002C080E090E05B
:10047000DF91CF911F9108950F931F93CF93809198
:10048000E102813011F5C09100010C2F10E0A801AC
:100490006BEE72E088E693E00E94380FC093E002B2
:1004A000C4E6C09300011092E9021092E102B80183
:1004B00088E693E064DF9093DD028093DC02EBEE4C
:1004C000F2E0DF011D92CA95E9F7CF911F910F91DC
:1004D0000895EF92FF921F93CF93DF93CDB7DEB7CE
:1004E000C456D1090FB6F894DEBF0FBECDBFD901F7
:1004F0009FEF998391E09A838B836C834D8380E097
:1005000090E015E00DC0FD01E80FF91F3081E1E03A
:10051000F0E0EC0FFD1FE10FF11D308301961F5F2E
:10052000642F70E08617970774F3E12EF12CB70162
:10053000CE01019614DFE1E0F0E0EC0FFD1FEE0DBF
:10054000FF1D80831F5F612F70E0CE010196F4DEF6
:10055000CC59DF4F0FB6F894DEBF0FBECDBFDF9191
:10056000CF911F91FF90EF9008958FEF8ABB84BBCE
:1005700011BA87E0809364008FE0809361007894E3
:1005800008958EEF809362002FEF8FE392E0215069
:1005900080409040E1F700C00000049904C08091C1
:1005A00001018093E502059908C087E08093550317
:1005B0008091E4028F5F8093E402069908C084E092
:1005C000809355038091E4028F5F8093E402079942
:1005D00008C081E0809355038091E4028F5F80938F
:1005E000E4028DEF809362002FEF8FE392E02150C1
:1005F00080409040E1F700C00000049907C01092CD
:1006000055038091E4028F5F8093E402059908C04E
:1006100088E0809355038091E4028F5F8093E40229
:10062000069908C085E0809355038091E4028F5FAE
:100630008093E402079908C082E08093550380917B
:10064000E4028F5F8093E4028BEF809362002FEFD0
:100650008FE392E0215080409040E1F700C000001D
:10066000049904C0809102018093E502059908C0B5
:1006700089E0809355038091E4028F5F8093E402C8
:10068000069908C086E0809355038091E4028F5F4D
:100690008093E402079908C083E08093550380911A
:1006A000E4028F5F8093E40287EF809362002FEF74
:1006B0008FE392E0215080409040E1F700C00000BD
:1006C000049904C0809103018093E502059904C058
:1006D000809104018093E502069904C08091050190
:1006E0008093E502079904C0809106018093E5029A
:1006F00008958091E402813021F490915503909304
:100700005703823021F49091550390935603833020
:1007100021F49091550390935A03843021F48091F1
:1007200055038093580308950E94850D882359F03E
:100730000E94AB0D882351F08CEC93E00E94AD0E2B
:1007400082E090E0089580E090E0089581E090E0FC
:10075000089567D560E875E280E090E00E94C30EDE
:1007600082C608950F931F93CF93DF938091E20287
:100770009091E302029709F050C10AC0FC01E453D2
:10078000FC4F2181FC01E45AFC4F2083019602C0FA
:1007900080E090E0843091058CF38091E702833013
:1007A00009F09BC0ECE5F3E06081C0E6D3E068832C
:1007B0008181898382818A8383818B8381E090E038
:1007C000C6DC698182E090E0C2DC6A8183E090E06F
:1007D000BEDC6B8184E090E0BADC81E090E0C5DCB7
:1007E00001E513E0F801808382E090E0BEDCF801CF
:1007F000818383E090E0B9DCF801828384E090E0BB
:10080000B4DCF801838320819881291366C020918C
:10081000520390916103291360C02091530390917A
:10082000620329135AC090916303891356C009DDEE
:100830008FEF9FE80197F1F700C0000060E080E0D3
:100840000DDD82E51CDD86E41ADD89E418DD84E433
:1008500016DD80E214DD89E412DD8EE410DD86E42D
:100860000EDD8FE40CDD82E50ADD8DE408DD81E438
:1008700006DD84E504DD89E402DD8FE400DD8EE43D
:10088000FEDC60E081E0EADC83E5F9DC81E4F7DCB2
:1008900086E5F5DC85E4F3DC84E4F1DC80E2EFDC82
:1008A00083E5EDDC85E5EBDC83E4E9DC83E4E7DC90
:1008B00085E4E5DC85E4E3DC84E4E1DC9FEFEFEF55
:1008C000F9E59150E040F040E1F700C000001092DF
:1008D000E7021092E4021092E5028091E702843070
:1008E00009F09BC0ECE5F3E06081C0E6D3E06C83E7
:1008F00081818D8382818E8383818F8385E090E0E7
:1009000026DC6D8186E090E022DC6E8187E090E05D
:100910001EDC6F8188E090E01ADC85E090E025DC49
:1009200001E513E0F801808386E090E01EDCF80129
:10093000818387E090E019DCF801828388E090E011
:1009400014DCF801838320819C81291366C02091E7
:10095000520390916503291360C020915303909135
:10096000660329135AC090916703891356C069DC46
:100970008FEF9FE80197F1F700C0000060E080E092
:100980006DDC82E57CDC86E47ADC89E478DC84E476
:1009900076DC80E274DC89E472DC8EE470DC86E470
:1009A0006EDC8FE46CDC82E56ADC8DE468DC81E47B
:1009B00066DC84E564DC89E462DC8FE460DC8EE480
:1009C0005EDC60E081E04ADC83E559DC81E457DCF1
:1009D00086E555DC85E453DC84E451DC80E24FDCC1
:1009E00083E54DDC85E54BDC83E449DC83E447DCCF
:1009F00085E445DC85E443DC84E441DC9FEFEFEFF4
:100A0000F9E59150E040F040E1F700C0000010929D
:100A1000E7021092E4021092E502DF91CF911F915C
:100A20000F9108958091E2029091E302029709F0FC
:100A3000E6C00CC0822F90E0FC01E453FC4F3181F2
:100A4000FC01E95FFE4F30832F5F01C020E02430BE
:100A500088F39091070180916003981365C090918D
:100A600008018091610398135FC090910901809102
:100A70006203981359C090910A01809163039813FF
:100A800053C0A9DBDEDB8FEF9FE80197F1F700C0D1
:100A9000000060E080E0E2DB84E4F1DB8FE4EFDB88
:100AA0008FE4EDDB82E5EBDB80E2E9DB8FE4E7DB83
:100AB00080E5E5DB85E4E3DB8EE4E1DB60E081E01B
:100AC000CDDB87E5DCDB85E4DADB8CE4D8DB83E4B3
:100AD000D6DB8FE4D4DB8DE4D2DB85E4D0DB80E2AF
:100AE000CEDB85E5CCDB83E5CADB85E4C8DB82E5CC
:100AF000C6DB81E3C4DB9FEF2FEF89E591502040F7
:100B00008040E1F700C000006BDB82E08093E802E8
:100B100028EE32E041E066E081E0DBDC1092E402A6
:100B20001092E5021092E702909107018091640310
:100B3000981365C0909108018091650398135FC078
:100B40009091090180916603981359C090910A0110
:100B500080916703981353C03EDB73DB8FEF9FE8F0
:100B60000197F1F700C0000060E080E077DB84E4EB
:100B700086DB8FE484DB8FE482DB82E580DB80E24E
:100B80007EDB8FE47CDB80E57ADB85E478DB8EE45A
:100B900076DB60E081E062DB87E571DB85E46FDBBB
:100BA0008CE46DDB83E46BDB8FE469DB8DE467DB76
:100BB00085E465DB80E263DB85E561DB83E55FDBA4
:100BC00085E45DDB82E55BDB82E359DB9FEF2FEFA2
:100BD00089E5915020408040E1F700C0000000DB33
:100BE00083E08093E80228EE32E041E066E081E0B5
:100BF00070DC1092E4021092E5021092E702089570
:100C0000CF938091E702811187C08091E402811126
:100C100041C060E023DB84E532DB81E430DB87E444
:100C20002EDB80E22CDB82E52ADB86E428DB89E40C
:100C300026DB84E424DB80E222DB8FE420DB82E518
:100C40001EDB80E21CDB80E21ADB80E218DB80E244
:100C500016DB80E214DB80E212DB60E081E0FEDA8A
:100C600080E50DDB85E50BDB84E509DB80E207DB56
:100C700080E505DB87E503DB84E401DB8AE3FFDA5B
:100C80008FE5FDDA8FE5FBDA8FE5F9DA8FE5F7DA44
:100C900080E2F5DA8091E402813031F468E0DEDA56
:100CA00080915703805DEBDA8091E402823039F461
:100CB00069E081E0D3DA80915603805DE0DA8091CB
:100CC000E402833039F46AE081E0C8DA80915A03A3
:100CD000805DD5DA8091E4028430E9F46BE081E054
:100CE000BDDA80915803805DCADA9091E502809167
:100CF0000101981305C081E08093E7021092E5029C
:100D00009091E50280910201981305C082E08093E2
:100D1000E7021092E50286DE8091E702813009F059
:100D2000A1C09091570380915B03981312C09091DA
:100D300056038091590398130CC090915A038091E7
:100D4000EA02981306C0909158038091E602981722
:100D500059F177DA8FEF9FE80197F1F700C00000B3
:100D600060E080E07BDA87E58ADA82E588DA8FE482
:100D700086DA8EE484DA87E482DA80E280DA80E55B
:100D80007EDA87E57CDA84E47ADA9FEF2FEF8CE273
:100D9000915020408040E1F700C000001092E7022F
:100DA0001092E4021092E5029091570380915B0348
:100DB000981358C09091560380915903981352C0CC
:100DC00090915A038091EA0298134CC09091580375
:100DD0008091E602981346C0FED933DA8FEF9FE880
:100DE0000197F1F700C0000060E080E037DA84E4AA
:100DF00046DA8FE444DA8FE442DA82E540DA80E2D0
:100E00003EDA8FE43CDA80E53ADA85E438DA8EE4DB
:100E100036DA60E081E022DA87E531DA85E42FDA3C
:100E20008CE42DDA83E42BDA8FE429DA8DE427DAF7
:100E300085E425DA9FEF2FEF89E59150204080402F
:100E4000E1F700C00000CCD91092E4021092E50254
:100E50001092E70281E08093E80228EE32E041E060
:100E600066E037DB8091E702823009F0D0C09091D4
:100E7000570380915B03981312C0909156038091A1
:100E8000590398130CC090915A038091EA02981369
:100E900006C0909158038091E602981759F1D1D974
:100EA0008FEF9FE80197F1F700C0000060E080E05D
:100EB000D5D987E5E4D982E5E2D98FE4E0D98EE49B
:100EC000DED987E4DCD980E2DAD980E5D8D987E5B4
:100ED000D6D984E4D4D99FEF2FEF8CE291502040F3
:100EE0008040E1F700C000001092E7021092E40297
:100EF0001092E5029091570380915B03981387C08D
:100F00009091560380915903981381C090915A0390
:100F10008091EA0298137BC0909158038091E60279
:100F2000981375C060E080E099D981E4A8D98EE279
:100F3000A6D985E5A4D983E5A2D985E4A0D982E51F
:100F40009ED981E39CD980E29AD982E498D98EE235
:100F500096D985E594D983E592D985E490D982E53F
:100F60008ED982E38CD960E081E078D984E487D996
:100F70008EE285D982E583D985E481D983E57FD95D
:100F800085E47DD984E57BD980E279D982E577D97A
:100F900086E475D989E473D984E471D980E26FD984
:100FA00080E26DD99091E50280910601981307C007
:100FB00083E08093E7021092E4021092E5029091A0
:100FC000E50280910501981307C084E08093E70251
:100FD0001092E4021092E5029091E50280910301E3
:100FE000981315C011C08C2F90E0FC01E05AFC4F03
:100FF000108260E00196ABD81092E7021092E402F2
:101000001092E502CF5F01C0C0E0C83060F380916C
:10101000E702833009F04BC060E080E01FD984E52F
:101020002ED981E42CD987E42AD980E228D98EE40C
:1010300026D985E424D987E522D980E220D983E422
:101040001ED981E41CD982E51AD984E418D980E23A
:1010500016D980E214D980E212D960E081E0FED88E
:1010600082E40DD981E40BD983E409D98BE407D953
:101070008AE305D983E203D980E201D980E2FFD86F
:1010800080E2FDD880E2FBD880E2F9D880E2F7D890
:1010900080E2F5D867DB9091E50280910201981318
:1010A00006C01092E4021092E5021092E7028091CD
:1010B000E702843009F04BC060E080E0CFD884E5DF
:1010C000DED881E4DCD887E4DAD880E2D8D88EE4B0
:1010D000D6D885E4D4D887E5D2D880E2D0D883E4C6
:1010E000CED881E4CCD882E5CAD884E4C8D880E2DE
:1010F000C6D880E2C4D880E2C2D860E081E0AED831
:1011000082E4BDD881E4BBD883E4B9D88BE4B7D8F6
:101110008AE3B5D883E2B3D880E2B1D880E2AFD811
:1011200080E2ADD880E2ABD880E2A9D880E2A7D82F
:1011300080E2A5D817DB9091E50280910201981317
:1011400006C01092E4021092E5021092E702CF91DD
:10115000089580E190E009D880935B0381E190E0FD
:1011600004D88093590382E190E00E94B5008093F7
:10117000EA0283E190E00E94B5008093E60281E0FC
:1011800090E00E94B500C0E6D3E0888382E090E062
:101190000E94B500898383E090E00E94B5008A83B5
:1011A00084E090E00E94B5008B8385E090E00E948F
:1011B000B5008C8386E090E00E94B5008D8387E0C7
:1011C00090E00E94B5008E8388E090E00E94B50018
:1011D0008F83CBD9A6D80E94E0000E94BE00B9DA66
:1011E0001AD824D80DD819D580934F0387B38062BD
:1011F00087BB27D88FEF9FE80197F1F700C0000069
:10120000FFDCBFD976DA38D98FDA9093E302809386
:10121000E2028091E402853098F384E08093E40256
:10122000EFCF8EE087BB87B3877F87BB80E58DB923
:101230001EB808958FB9779BFECF8FB10895CF93D5
:10124000C62F98B39E7F98BBF5DF8C2FF3DF88B352
:10125000816088BBCF9108950F931F93CF93DF9345
:10126000D62F8A0198B39E7F98BBE4DFC0E006C00A
:10127000F801EC0FF11D8081DDDFCF5FCD17C0F3EA
:1012800088B3816088BBDF91CF911F910F91089542
:1012900098B39E7F98BB8068CDDF80E0CBDF98B3AA
:1012A000916098BB0895CF92DF92EF92FF920F93D7
:1012B0001F93CF93DF93662309F43CC0D22F6A01BA
:1012C000082F006888B38E7F88BB1FEF160F802F12
:1012D000B1DFDD23B9F08FEF90E09C0102C0220F57
:1012E000331FDA95E2F7E901802FA4DFF601908140
:1012F0002C2F209592238C23892BF6018083C1E02B
:10130000D0E00BC0C0E0D0E008C07601EC0EFD1EBE
:10131000802F90DFF70180832196212F30E0C217C4
:10132000D3079CF3CC0DDD1D80E084DF888388B378
:10133000816088BBDF91CF911F910F91FF90EF905B
:10134000DF90CF900895CF93DF93D82FC62FA0DFE3
:10135000682F6C2B8D2F73DFDF91CF910895CF9382
:10136000DF93D82FC62F94DFC0956C2F68238D2F65
:1013700066DFDF91CF910895EF92FF920F931F9355
:10138000CF93DF937C01C62F8A0160E082E057DFB4
:1013900064E08AE054DF60E884E151DFA7016C2F4C
:1013A00082E15ADF63E082E04ADFC0E0D0E08AE019
:1013B0006FDF82FF0DC060E082E041DF84E468DF20
:1013C000F801808382E464DFF801818380E00AC051
:1013D00086E69EE00197F1F700002196CA35D10517
:1013E00034F383E0DF91CF911F910F91FF90EF9045
:1013F000089588E24DDF982F9370933021F0682F85
:10140000636088E21CCF089587B3816087BB88B38F
:10141000816088BB84B3816084BB85B38E7F85BBCC
:101420008AE08A95F1F785B3816085BB60E084E24C
:1014300006DF60E086E203DF66E288E400DF60E862
:1014400084E5FDDE69EA86E5FADE63E088E5F7DE3D
:1014500068EE8AE5F4DE60E48AE2F1DE6DE382E2C2
:10146000EEDEC7CF089585B3816085BB88B3816008
:1014700088BB84B3816084BB87B3816087BB84B33E
:101480008E7F84BB80E791E00197F1F700C084B3C1
:10149000816084BB9FEF2FE784E091502040804023
:1014A000E1F700C00000B0CF08954F925F926F92B5
:1014B0007F928F929F92AF92BF92CF92DF92EF92E4
:1014C000FF920F931F93CF93DF9300D0CDB7DEB77A
:1014D000982EB62E2A01722EC114D10419F0F601ED
:1014E000608001C0612CF0E1AF9E600C112460E0CF
:1014F00082E0A5DE6FE788E0A2DE60E884E19FDE9F
:10150000A201672D82E1A8DE662D8AE198DE692DB1
:1015100082E095DE8CE0981203C060E88AE113DF78
:10152000412C512C88E0B4DE982F9B2189F480FD5A
:1015300077C09FEF491A590AE0E7F1E03197F1F7D8
:1015400000C0F0E94F16F1E05F0664F380E001C0EF
:1015500081E0882309F466C08CE09ADEB82E83719E
:1015600009F062C001151105C9F0E114F104C1F0E0
:1015700084E18EDEF7019081981708F457C08083CC
:101580002A2DA801682F82E18EDE88E181DE877036
:10159000C114D10431F0F601808303C080E001C0A2
:1015A00080E0B3FC45C00115110509F443C0E11406
:1015B000F10409F441C0882009F440C0F70190818A
:1015C000913011F4843011F1923010F1811122C068
:1015D0006EEF690FAE014F5F5F4FC801CDDE811125
:1015E0002EC0F701808190E0F801E80FF91F3297D3
:1015F00030812981321310C0800F911FFC01319777
:1016000090818A8198130AC080E019C08FEF17C0BB
:1016100087E015C087E013C087E011C087E00FC0E6
:1016200083E00DC083E00BC081E009C084E007C007
:1016300082E005C080E003C080E001C080E00F9040
:101640000F90DF91CF911F910F91FF90EF90DF905E
:10165000CF90BF90AF909F908F907F906F905F9052
:101660004F9008958F92AF92CF92DF92EF92FF92B8
:101670000F931F938C2CAE2C680179018A01262FC1
:10168000AC0160E38CE011DF1F910F91FF90EF90B0
:10169000DF90CF90AF908F9008958F929F92AF92EE
:1016A000BF92CF92EF920F931F93CF93DF9300D00F
:1016B000CDB7DEB78A836115710509F1FA01808122
:1016C0008230F8F04A015B0160E88CE148DE87E097
:1016D0008983C12CE12C8E010F5F1F4F9401A5015E
:1016E00061E0CE010296BEDF811110C0F40180815D
:1016F000823049F48981882341F081E007C084E089
:1017000005C084E003C081E001C080E00F900F902D
:10171000DF91CF911F910F91EF90CF90BF90AF903D
:101720009F908F900895AB01BC0186E2B6CF0895DB
:101730003F924F925F926F927F928F929F92AF9261
:10174000BF92CF92DF92EF92FF920F931F93CF93AE
:10175000DF93CDB7DEB72B970FB6F894DEBF0FBE81
:10176000CDBF613508F076C1762E4C0160E88CE182
:10177000F6DD55245394412C62C132E05316A9F092
:1017800063E0561621F171E0571266C183E989833F
:10179000772031F0F4018081853020F440E003C0EF
:1017A00040E001C041E0612C19C085E989837720C0
:1017B00031F0F4018081883020F440E003C040E043
:1017C00001C041E00F2EF3E06F2EF02D07C087E936
:1017D00089830F2EF6E06F2EF02D40E0862D880FC6
:1017E000880F880FF72CF81A0AF4F12C442321F003
:1017F00088E88B8393E001C092E05F2D21E08F2D7C
:10180000877009F420E08F2DFF2014F487E08F0DFE
:10181000859585958595820FE1F0442311F033E09D
:1018200001C034E0381708F0382F80E010C0E82FEE
:10183000F0E0E60DF11DE80DF91D2181E1E0F0E099
:10184000EC0FFD1FE90FF11D20838F5F9F5F831752
:1018500070F3442321F06894FF24F3F8F50ED12CA3
:10186000ACC0FFE1FF15FCF480E78A833B818C81EB
:101870002D819E818327822789278F83AE01485F30
:101880005F4F67E0CE01019677DD8111F2C01A86C5
:1018900083E08B875E0137E0A30EB11C0F2EF9E0C9
:1018A0003F2EF02D27C08F2D87781CF48150886F34
:1018B0008F5F282F8A879F2DFF2014F497E09F0DBC
:1018C0009595959595959E5F822F60E1969F800DE9
:1018D00011248A8381E0211101C080E0392E380E65
:1018E000AA24A394B12CAC0EBD1EA90EB11C89E094
:1018F000891B8B87EA846E2D6295607F6E0D8AE16D
:101900009EDCC12C8E01065F1F4F9E01255F3F4F5D
:10191000A501632DCE010196A5DE823009F042C0FB
:101920008CE1B6DC85FD9AC08F7109F480E2282F26
:1019300030E04F2DFF0C550B421753070CF090C0B1
:10194000F82E8778022E000C330B215031092770B6
:101950003078332334F421503109286F3F6F2F5FE3
:101960003F4F91E0811101C090E08F2DFF2014F4D2
:1019700087E08F0D859585958595980F9F5F41E050
:1019800050E0FA0102C0EE0FFF1F2A95E2F79F0117
:10199000E1E0F0E0EC0FFD1FE90FF11D8081282B45
:1019A00020830BC0811165C0FFE1FF151CF4DD240D
:1019B000D39403C06894FF24F5F8DD2009F451CFD7
:1019C0008B81883811F493E001C092E0883811F4DB
:1019D00033E001C034E080E010C0E82FF0E0E60D15
:1019E000F11DA1E0B0E0AC0FBD1FA90FB11D2C91FE
:1019F000E80DF91D21838F5F9F5F831770F38B853F
:101A0000833081F58A8581112FC0AE014D5F5F4F14
:101A100061E0C501B1DC81112CC09B81F5018181A0
:101A2000981324C09C818281981322C0808182FFF8
:101A300002C0539404C0F401838744244394442097
:101A400009F49BCE852D880F850D8F5FF40180836F
:101A500080E00FC086E00DC085E00BC082E009C0C9
:101A600085E007C081E005C081E003C087E001C0D8
:101A700087E02B960FB6F894DEBF0FBECDBFDF9187
:101A8000CF911F910F91FF90EF90DF90CF90BF907B
:101A9000AF909F908F907F906F905F904F903F900E
:101AA0000895CF92EF920F931F93CF93DF9300D0BF
:101AB00000D0CDB7DEB780E589831A82AE014D5FD5
:101AC0005F4F62E0CE01019657DC811113C0C12C3B
:101AD000E12C00E010E020E030E040E050E064E085
:101AE000CE010196BFDD833021F0811103C081E07A
:101AF00001C080E00F900F900F900F90DF91CF9179
:101B00001F910F91EF90CF900895CF93DF9300D066
:101B10001F92CDB7DEB782E08B8360E084E28FDB7B
:101B200060E086E28CDB66E288E489DBBE016D5F03
:101B30007F4FCE010196F7DD882321F0823021F41A
:101B400081E003C081E001C080E00F900F900F9012
:101B5000DF91CF91089560E08CEC93E0E9DD91E0B6
:101B6000811190E0892F08958F7790E0813491055D
:101B7000A0F4FC01EA5BFF4F72C18FEF089584E08F
:101B8000089585E0089586E0089587E0089589E046
:101B9000089581E0089582E0089580E0089583E04B
:101BA0000895853011F158F48230A1F118F4813094
:101BB00099F02DC0833099F08430A1F028C088308E
:101BC000E9F028F48630A1F08730A9F020C08930F0
:101BD000C1F08F3FC9F01BC08CE091E0089588E50B
:101BE00091E008958FE691E008958AE791E00895E5
:101BF00085E891E0089587EA91E0089583EB91E00C
:101C0000089582EC91E0089581ED91E0089584EFCC
:101C100091E0089580E391E00895CF938EE638DB5C
:101C2000C82F81E092E0A3D01F92CF9386EB92E081
:101C30009F938F938EE394E09F938F9322D18EE3B3
:101C400094E095D00F900F900F900F900F900F9001
:101C5000C03979F028F4C231C1F0C83831F019C068
:101C6000C13959F0C23969F014C086E192E07FD0E1
:101C700013C083E292E07BD00FC08DE292E077D078
:101C80000BC087E392E073D007C081E492E06FD08D
:101C900003C087E592E06BD08FEF8C0F8E3F18F07A
:101CA00086E692E064D08C2FCF9108950F931F9316
:101CB000CF938C018BEA92E05AD0C0E019C0F801B2
:101CC000EC0FF11D81811F928F9385EB92E09F9322
:101CD0008F938EE394E09F938F93D3D08EE394E021
:101CE00046D0CF5F0F900F900F900F900F900F90F6
:101CF000F8018081C81718F380E292E038D08BEBAE
:101D000092E035D0F8018385803118F486EC92E0BA
:101D10002ED0F80183851F928F9388EC92E09F93D9
:101D20008F938EE394E09F938F93ABD08EE394E0F8
:101D30001ED0F801838518DFC82F8FEC92E017D0F2
:101D40008C2F2FDF14D00F900F900F900F900F90CB
:101D50000F90CF911F910F910895A8DFA2CE089503
:101D600090919B0095FFFCCF80939C000895CF93AA
:101D7000DF93EC0102C0F4DF219688818111FBCF53
:101D8000DF91CF9108959B01AC0160E070E18EE09E
:101D900090E043D0BA01A90141505109610971098C
:101DA00088E980939A00BB27A72F962F852F8093D1
:101DB000980040939900789408951F920F920FB65F
:101DC0000F9211240BB60F928F939F93EF93FF9373
:101DD00080913C04E82FF0E090919C00E852FC4F89
:101DE00090838F5F80933C04853028F09091DC03D2
:101DF0009A5F90930B0190910B01891303C081E0CE
:101E000080933D04FF91EF919F918F910F900BBEB6
:101E10000F900FBE0F901F901895A1E21A2EAA1BCB
:101E2000BB1BFD010DC0AA1FBB1FEE1FFF1FA2178A
:101E3000B307E407F50720F0A21BB30BE40BF50B87
:101E4000661F771F881F991F1A9469F76095709510
:101E5000809590959B01AC01BD01CF010895EE0FD7
:101E6000FF1F0024001C0BBE0790F691E02D099483
:101E7000FB01DC0102C001900D9241505040D8F7A7
:101E800008950F931F93CF93DF93CDB7DEB72E97AF
:101E90000FB6F894DEBF0FBECDBF0D891E8986E058
:101EA0008C831A8309838FEF9FE79E838D83AE0116
:101EB000475E5F4F6F89788DCE01019610D0EF811C
:101EC000F885E00FF11F10822E960FB6F894DEBF52
:101ED0000FBECDBFDF91CF911F910F9108952F922B
:101EE0003F924F925F926F927F928F929F92AF92AA
:101EF000BF92CF92DF92EF92FF920F931F93CF93F7
:101F0000DF93CDB7DEB72B970FB6F894DEBF0FBEC9
:101F1000CDBF6C017B018A01FC011782168283818F
:101F200081FFBFC1CE0101963C01F6019381F7010B
:101F300093FD859193FF81917F01882309F4ADC1C1
:101F4000853239F493FD859193FF81917F0185322C
:101F500021F4B60190E0D6D1E8CF912C212C312C80
:101F6000FFE1F315D8F08B3279F038F4803279F054
:101F70008332A1F4232D20611DC08D3261F08033A6
:101F800069F4232D216016C0832D8260382EE32D45
:101F9000E4603E2E2AC0F32DF8601DC037FC2DC032
:101FA00020ED280F2A3040F08E32B9F436FC75C18E
:101FB000232D2064322E19C036FE06C08AE0989E7A
:101FC000200D1124922E11C0EAE02E9E200D112426
:101FD000222EF32DF0623F2E08C08C3621F4832D83
:101FE0008068382E02C0883641F4F70193FD859150
:101FF00093FF81917F018111B3CF982F9F7D9554DD
:10200000933028F40C5F1F4F9FE399830DC08336F4
:1020100031F0833771F0833509F055C020C0F801E5
:10202000808189830E5F1F4F88248394912C5301F4
:1020300012C02801F2E04F0E511CF801A080B180BF
:1020400036FE03C0692D70E002C06FEF7FEFC5015F
:102050004ED14C018201F32DFF773F2E15C0280190
:1020600022E0420E511CF801A080B18036FE03C070
:10207000692D70E002C06FEF7FEFC5012DD14C01DB
:10208000F32DF0683F2E820133FC19C0822D90E0C1
:1020900088169906A0F4B60180E290E033D12A9424
:1020A000F5CFF50137FC859137FE81915F01B601CF
:1020B00090E028D121102A9421E0821A91088114FD
:1020C000910479F7E1C0843611F0893639F5F801C9
:1020D00037FE07C060817181828193810C5F1F4F41
:1020E00008C060817181072E000C880B990B0E5F70
:1020F0001F4FF32DFF763F2E97FF09C090958095D7
:10210000709561957F4F8F4F9F4FF0683F2E2AE06B
:1021100030E0A30133D1882E861844C0853731F4CE
:10212000232D2F7EB22E2AE030E025C0932D997FFB
:10213000B92E8F36C1F018F4883579F0AEC08037EB
:1021400019F0883721F0A9C0E92FE061BE2EB4FE56
:102150000DC0FB2DF460BF2E09C034FE0AC0292F2C
:102160002660B22E06C028E030E005C020E130E055
:1021700002C020E132E0F801B7FE07C06081718142
:10218000828193810C5F1F4F06C06081718180E066
:1021900090E00E5F1F4FA301F1D0882E8618FB2D13
:1021A000FF773F2E36FE0DC0232D2E7FA22E8914E1
:1021B00058F434FE0BC032FC09C0832D8E7EA82E4D
:1021C00005C0B82CA32C03C0B82C01C0B92CA4FEA8
:1021D0000FC0FE01E80DF11D8081803321F49A2D9E
:1021E000997EA92E09C0A2FE06C0B394B39404C080
:1021F0008A2D867809F0B394A3FC10C0A0FE06C017
:10220000B21480F4280C922C9B180DC0B21458F410
:10221000B60180E290E076D0B394F8CFB21418F40F
:102220002B1802C0982C212CA4FE0FC0B60180E30D
:1022300090E068D0A2FE16C0A1FC03C088E790E041
:1022400002C088E590E0B6010CC08A2D867851F076
:10225000A1FE02C08BE201C080E2A7FC8DE2B601C4
:1022600090E050D0891430F4B60180E390E04AD079
:102270009A94F8CF8A94F301E80DF11D8081B6019C
:1022800090E040D08110F6CF222009F44ECEB60166
:1022900080E290E037D02A94F7CFF60186819781CB
:1022A00002C08FEF9FEF2B960FB6F894DEBF0FBEE4
:1022B000CDBFDF91CF911F910F91FF90EF90DF90F5
:1022C000CF90BF90AF909F908F907F906F905F90D6
:1022D0004F903F902F900895FC0105906150704001
:1022E0000110D8F7809590958E0F9F1F0895FC01DF
:1022F0006150704001900110D8F7809590958E0F35
:102300009F1F08950F931F93CF93DF93FB012381AA
:1023100021FD03C08FEF9FEF2CC022FF16C0468126
:102320005781248135814217530744F4A081B1813C
:102330009D012F5F3F4F318320838C93268137810E
:102340002F5F3F4F3783268314C08B01EC01FB01C5
:102350000084F185E02D0995892BE1F6D8011696C8
:102360008D919C911797019617969C938E93169733
:10237000CE01DF91CF911F910F910895FA01AA2705
:10238000283051F1203181F1E8946F936E7F6E5FB8
:102390007F4F8F4F9F4FAF4FB1E03ED0B4E03CD066
:1023A000670F781F891F9A1FA11D680F791F8A1F49
:1023B000911DA11D6A0F711D811D911DA11D20D0B0
:1023C00009F468943F912AE0269F11243019305D6A
:1023D0003193DEF6CF010895462F4770405D41935B
:1023E000B3E00FD0C9F7F6CF462F4F70405D4A33A8
:1023F00018F0495D31FD4052419302D0A9F7EACF70
:10240000B4E0A6959795879577956795BA95C9F79E
:1024100000976105710508959B01AC010A2E069491
:102420005795479537952795BA95C9F7620F731F4A
:0C243000841F951FA01D0895F894FFCF95
:10243C00640605040302010102030464504943438A
:10244C0020636F6D706C69616E742077697468209D
:10245C0049534F2F4945432031343434332D340004
:10246C005049434320636F6D706C69616E742077C3
:10247C006974682049534F2F49454320313830390E
:10248C003220284E464329004D4946415245204DA5
:10249C00696E692C20333230206279746573004D7B
:1024AC00494641524520314B42004D494641524527
:1024BC0020344B42004D494641524520556C7472B4
:1024CC00616C69676874206F7220556C7472616CF2
:1024DC00696768742043004D494641524520506C51
:1024EC007573004D49464152452044455346697227
:1024FC0065004D494641524520544E50335858586A
:10250C000053414B20696E64696361746573205597
:10251C004944206973206E6F7420636F6D706C6515
:10252C0074652E00556E6B6E6F776E2074797065C6
:10253C00004669726D776172652056657273696FBA
:10254C006E3A20307800203D2028636C6F6E652930
:10255C000D0A00203D2076302E300D0A00203D2043
:10256C0076312E300D0A00203D2076322E300D0AA9
:10257C0000203D20636F756E74657266656974200A
:10258C00636869700D0A00203D2028756E6B6E6FB4
:10259C00776E290D0A005741524E494E473A204357
:1025AC006F6D6D756E69636174696F6E20666169BC
:1025BC006C7572652C20697320746865204D4652C9
:1025CC00433532322070726F7065726C7920636F94
:1025DC006E6E65637465643F0D0A0043617264201E
:1025EC005549443A0020253032780043617264200A
:1025FC0053414B3A20003000253032780D0A005000
:0C260C0049434320747970653A200000B7
:00000001FF
